:040000008A11112828
:10000800FF00030883120313C0000408C1000A0894
:10001800C2007E08C3008A114D2D8A11772F8312E2
:100028000313AD003530AA00A3292C08253A03197B
:100038001E281F282B282C08A6002D088400260817
:10004800831380000130A6002608AD07A3290030DD
:10005800B2000030B3000310003003180130AB00C9
:100068003A28AB150130A6002608B40734088A11CF
:1000780009248A112D3A03193528422834088A118F
:1000880009248A118A1141278A11031C4C284D28FA
:100098004D29003083120313B2000030B3008312DD
:1000A800031334088A1109248A11A600A70133080A
:1000B800A301A3073208A201A2070A30A400003056
:1000C800A5008A1196268A11831203132608831322
:1000D8002207A80027080318270A2307A9002808C9
:1000E800D03EB20029080318013EFF3EB30001309C
:1000F800A6002608B40734088A1109248A118A112F
:1001080041278A11031889288A2853284D292A0843
:10011800840083130008AE00840A0008AF00023090
:10012800A6002608AA072F082E04031D9C289D2830
:10013800A1285730AE000030AF000030B0000030CA
:10014800B100AC280130B0070318B10A0030B1077C
:100158002F08A7002E08A6003008260784002708C5
:100168000318270A8A1100248A110038031DBD28A4
:10017800BE28A62833083102031DC42832083002DD
:100188000318C728C828CF283008B2023108031C32
:10019800B303B302D3280030B2000030B300AB1968
:1001A800D628D7280A29E3282030A6002D0884005D
:1001B8002608831380000130A6002608AD07FF300B
:1001C800B2070318B30AFF30B307FF303306031D25
:1001D800EF28FF303206031DF228F328D8280A2911
:1001E8002E0884002F088A1100248A11A6002D08E1
:1001F80084002608831380000130AE070318AF0A75
:100208000030AF070130A6002608AD070130B00264
:100218000030031CB103B102FF303106031D16295B
:10022800FF303006031D19291A29F428AB1D1D2992
:100238001E29A3292A292030A6002D088400260873
:10024800831380000130A6002608AD07FF30B207EF
:100258000318B30AFF30B307FF303306031D3629EE
:10026800FF303206031D39293A291F29A3292A08F4
:10027800840083130008AC000230A6002608AA07F1
:100288002C30AE008030AF000130B0000030B1003B
:10029800BE280001013883120313B4070001FF3898
:1002A80034078A1109248A11AC00003A0319B429C9
:1002B800633A03193B29103A03198B284429203043
:1002C800A6002D088400260880000130A600260814
:1002D800AD07FF30B2070318B30AFF30B30733087E
:1002E8003204031D782979296329AB1D7C297D29CE
:1002F800A3293308803AA60080302602031D8629E8
:1003080001303202031C89298A29A329203083124B
:100318000313A6002D0884002608831380000130EB
:10032800A6002608AD07FF30B2070318B30AFF304E
:10033800B30733083204031DA229A3298A2900011F
:10034800013883120313B4070001FF3834078A11F8
:1003580009248A11AC00AC08031DB329B429192853
:1003680003102D0884000030031801308313800027
:10037800080083120313490983160313E300831249
:1003880003134A0983160313E20083120313580860
:100398008A11C1268A1183120313B5000030B600F2
:1003A8002730B40057088A11B8248A11831203131E
:1003B800B7000030B80055088A11B8248A11831292
:1003C8000313BB000030BC0056088A11B8248A11F8
:1003D80083120313B9000030BA00BF308A1113200A
:1003E8008A118312031354088A11C1268A118312B1
:1003F8000313B5000030B6002730B40053088A1143
:10040800B8248A1183120313B7000030B8005108CA
:100418008A11B8248A1183120313BB000030BC0070
:1004280052088A11B8248A1183120313B9000030C4
:10043800BA00B5308A1113208A11143083120313BD
:10044800B400BF30B5008030B600B530B70080309A
:10045800B800A0308A1113208A1100308A116D2744
:100468008A11A0308A1127278A1120308316031396
:10047800D7000030D800631F422A432A472A2A306F
:10048800D7000030D8002030D5000030D600E31E59
:100498004E2A4F2A532A2A30D5000030D600203061
:1004A800DB000030DC00631E5A2A5B2A5F2A2A30F0
:1004B800DB000030DC002030D9000030DA00E31D1A
:1004C800662A672A6B2A2A30D9000030DA005A08CF
:1004D80083120313B601B607831603135908831250
:1004E8000313B501B5071E30B400831603135C0867
:1004F80083120313B801B807831603135B0883122A
:100508000313B701B707831603135808831203139D
:10051800BC01BC0783160313570883120313BB01DE
:10052800BB0783160313560883120313BA01BA07CD
:1005380083160313550883120313B901B907BF3093
:100548008A1113208A11BF3083160313CF0080301D
:10055800D000E31FB02AB12AB52A5E30CF000030A0
:10056800D0005008D201D2074F08D101D107631F2C
:10057800BE2ABF2AC32A4030D1000030D200520818
:10058800D401D4075108D301D307E31DCC2ACD2ABF
:10059800D12A5030D3000030D4005408CA01CA0709
:1005A8005308C901C907631DDA2ADB2ADF2A483044
:1005B800C9000030CA004A08CC01CC074908CB0161
:1005C800CB07E31EE82AE92AED2A3830CB000030B1
:1005D800CC004C08CE01CE074B08CD01CD07631ED9
:1005E800F62AF72AFB2A3030CD000030CE009F30A3
:1005F800DF00621C002B012B032B6430DF009F30CF
:10060800DE00E21C082B092B0B2B6E30DE005E0887
:10061800DD00621D102B112B132B6930DD009F307C
:10062800E100E31C182B192B1B2B8D30E10061080E
:10063800E000631C202B212B232B9030E000600866
:1006480083120313B5000030B6000130B4008316DE
:1006580003135D0883120313B7000030B800831634
:1006680003134E0883120313BC01BC07831603133C
:100678004D0883120313BB01BB07831603135F08DE
:1006880083120313B9000030BA00A0308A11132076
:100698008A1140308A116D278A11A0308A112727C4
:0406A8008A110800AB
:10080000FE00FE1F082C83137E18831700080800C3
:100810000408FE0004308A007E0882070034253474
:100820002D3432347334203425342D34343473343D
:10083000203425342D343434733420342534373483
:100840007334003425342D3431343034733425344A
:100850003134303473340034253463342534633414
:10086000253463342534633400342534733425341B
:100870007334253473342534733400344F34563490
:100880004534523456344C34543400344F34563496
:100890004534523454344D345034003446344F349B
:1008A0004C344434423443344B3400344F345634A3
:1008B0004534523452344E3447340034443449348D
:1008C0005334413442344C34003428346E3475345B
:1008D0006C346C34293400344534523452344F343F
:1008E0005234003466346F346C34643400347634FB
:1008F0006F346C34743400346334753472340034BF
:100900002E34323400342E34333400342E34353423
:1009100000342E34343400342B34313400342E344B
:10092000303400342E34313400342D34313400343A
:100930002E34393400346334433400346334563451
:1009400000342E34363400342E34373400342E3410
:10095000383400342A34003420340034683400340D
:100960002B34003445340034483400342D34003402
:1009700083120313A000F62C82304C2D7F304C2DB7
:1009800073304C2D76304C2D7C304C2D79304C2DE5
:1009900094304C2D97304C2D9A304C2D8B304C2D63
:1009A00081304C2D84304C2D72304C2D75304C2DB7
:1009B0007B304C2D78304C2D93304C2D96304C2D77
:1009C00099304C2D8A304C2D8E304C2DA6304C2D2C
:1009D000A6304C2DA0304C2D55304C2DA4304C2D34
:1009E00070304C2D9E304C2D9C304C2D2008003A00
:1009F0000319E02C013A0319D02C093A0319E22C0F
:100A0000143A0319D82C3E3A0319D42C0A3A031984
:100A1000D62C053A0319DE2C103A0319D22C7D3A54
:100A20000319CC2C013A0319BC2C093A0319CE2C1A
:100A30001C3A0319E62C013A0319E82C093A031968
:100A4000C42C3E3A0319C02C0A3A0319C22C053AA9
:100A50000319CA2C103A0319BE2CFD3A0319DC2CD9
:100A6000083A0319DA2C483A0319C82C033A031937
:100A7000E42C0B3A0319C62C1A3A0319EE2C013A4E
:100A80000319EC2C073A0319EA2C223A0319F02C2B
:100A9000093A0319F22CF42C080000300719013030
:100AA000C4008C1D542D552D862D1309C500C40876
:100AB000031D5B2D5C2D6D2D4508C7004708123ABC
:100AC000031D632D642D842D4B089300831603139F
:100AD000871283120313CB14842D4708123A031D87
:100AE000722D732D772D831603138716842D471EC1
:100AF0007A2D7B2D842D4508BF0047080F39493ECC
:100B000084003F088313800083128C110B1C892DF5
:100B10008A2DB12D0608BF0006300310BF0CFF3E22
:100B2000031D8D2D3F080339C6004608031D992D6E
:100B30009A2DAE2DFD30BF003F08CB054808BF0001
:100B400003103F0C460601390319A72DA82DAD2D22
:100B5000FE30BF003F08CB05AE2D4B144608C80041
:100B60000B104308FE0042088A0041088400400838
:100B70008300FF0E7F0E09000630831603139F00CB
:100B800031308500C03086007F30870081138A11A4
:100B900018268A11FF3083120313A3000030A4002B
:100BA0001030A5000030A60049308A11E8268A11CD
:100BB000031000300318013083120313C700060826
:100BC000BD0006300310BD0CFF3E031DE22D3D08A5
:100BD0000339C800071FED2DEE2DEA2D9412941154
:100BE000141594101414141683160313141383127B
:100BF000031394168C110B10831603138C15831298
:100C000003130B178B158B178A1161268A118A1112
:100C1000BD218A11413083120313BE00EE30BD00A6
:100C2000BD0B102EBE0B102E6400042E8A1111284D
:100C3000831203138511851005116230A9006530F8
:100C4000A800A80B212EA90B212E262E03308312DB
:100C500003138600851485102130A9007630A80082
:100C6000A80B302EA90B302E6400831203138514B9
:100C70008510F930A8006400A80B3B2E3F2E6400BD
:100C80008312031385148510F930A8006400A80BA3
:100C9000462E4A2E64000230831203138600851408
:100CA000851028308A110A278A110C308A110A27E8
:100CB0008A118A115A278A1106308A110A278A1145
:100CC0000800831203130518662E672E6C2EFB3066
:100CD000A0002008CB056D2E4B150718702E712E25
:100CE000762EF730A0002008CB05772ECB1587187D
:100CF0007A2E7B2E802EEF30A0002008CB05812E8F
:100D00004B16051A842E852E8A2EDF30A00020086F
:100D1000CB058B2ECB16851A8E2E8F2E942EBF30A0
:100D2000A0002008CB05952E4B1708000030831239
:100D30000313A0000030A100221C9F2EA02EA62E7F
:100D40002408A0070318A10A2508A10701300310F1
:100D5000A40DA50DFF3E031DA72E01300310A30C0B
:100D6000A20CFF3E031DAE2E23082204031DB92E44
:100D7000BA2E9C2E2108A301A3072008A201A207D6
:100D8000080083120313A000D32EA230E72EA83050
:100D9000E72E7F30E72E7E30E72E8730E72E9E301D
:100DA000E72E9C30E72E2008E03A0319CB2E063AB6
:100DB0000319C52E0F3A0319CD2E063A0319C72E73
:100DC000163A0319C92E063A0319CF2ED12E080060
:100DD00083120313A1002108A200F92E2308A0000A
:100DE000220884002008831380000130A00020081E
:100DF000A2070130A5020030031CA603A602FF30A3
:100E00002606031D052FFF302506031D082F092F79
:100E1000EE2E080083120313A5004230A400A40B99
:100E20000F2F6400831203132508A400043003105D
:100E3000A40CFF3E031D172F24080F3986008514CC
:100E4000851025080F398600851485100800831247
:100E50000313A7008515382F2708840000088A117E
:100E60000A278A11013083120313A6002608A70758
:100E70002708840083138008031D3F2F402F2C2F49
:100E8000080083120313A10003100030031801307F
:100E9000A0003A30210203184E2F4F2F582F303028
:100EA0002102031C542F552F582FA0010314A00D0D
:100EB000200C080083120313851101308A110A27C0
:100EC0008A110D3083120313A700FB30A600A60B76
:100ED000672FA70B672F6C2F080083120313A60040
:100EE00085112608803E8A110A278A11080083137B
:100EF0004730840059308A1181278A1183018A1171
:100F0000BC2D64008001840A040603190034040621
:020F1000822F2E
:02400E00323F3F
:00000001FF
